:100000000C9443000C9460000C9460000C9460000D
:100010000C9460000C9460000C9460000C946000E0
:100020000C9460000C9460000C9460000C946000D0
:100030000C9460000C9460000C9460000C946000C0
:100040000C9460000C9460000C9475000C9460009B
:100050000C9460000C9460000C9460000C946000A0
:100060000C9460000C94600005A84CCDB2D44EB93D
:100070003836A9020C50B9918688083CA6AAAA2A4B
:10008000BE000000803F11241FBECFEFD8E0DEBFCE
:10009000CDBF11E0A0E0B1E0EAE8F8E102C00590D0
:1000A0000D92A030B107D9F721E0A0E0B1E001C086
:1000B0001D92AA30B207E1F70E949F000C94430CF6
:1000C0000C9400009093C5008093C40088E980934D
:1000D000C10086E08093C20008958FEF84B985B98E
:1000E00087B988B98AB98BB908951F920F920FB654
:1000F0000F9211248F939F93EF93FF9380910001B0
:1001000090910101089794F4E0910001F0910101B0
:100110008091C600ED5FFE4F808380910001909139
:10012000010101969093010180930001FF91EF91ED
:100130009F918F910F900FBE0F901F901895CF93A6
:10014000DF93CDB7DEB7C154D1090FB6F894DEBF47
:100150000FBECDBFF89483E390E00E9462000E943E
:100160006D00789444244A94512C66246A94712C2E
:1001700028EE33E039A728A7AA24A394B12C21960E
:100180001FAE219722961FAE229730E4388F80E46D
:10019000898F1AAE1BAE1CAE1DAEA8EEB3E0BFA396
:1001A000AEA388248394912C1EAE1FAEB0E4BE8B08
:1001B000E0E4EF8B9E012F5F3F4F398728871EA613
:1001C0001FA6A885B985E7E01D92EA95E9F7809119
:1001D000000190910101079709F080C01092010180
:1001E00010920001FE01319680E090E0DC01AD5FED
:1001F000BE4F2C912193019687309105B9F7A3E06A
:10020000B1E0E7E01D92EA95E9F78981843209F0CF
:1002100065C01A81812F8F73E82EF12CF594E79435
:10022000F594E794F594E794612F677070E0762F6A
:1002300066278B81682B80E090E00E94550A20E0C1
:1002400030E048EC52E40E94AD09062FD72EC82EAC
:100250009A8B8E8190E0982F88272F811C01222A6B
:100260001295169516951370113051F04701992487
:100270003FA22EA20EAFDFAECE8AFA89FF8B2EC030
:100280006C8170E0660F771F660F771F660F771F10
:100290008D81829586958770682B80E090E00E9422
:1002A000550A20E030E046E953E40E943B0920E093
:1002B00030E048EC52E40E94AD096AAF7BAF8CAFEE
:1002C0009DAF5701BB2439A628A621960FAF2197D1
:1002D0002296DFAE2297C88E2A89298F20E030E04F
:1002E00040E450E46AAD7BAD8CAD9DAD0E94AD099C
:1002F00020E030E04EEF52E40E94070B6A8B7B8BCC
:100300008C8B9D8BAEA1BFA1BD01BB0F880B990B40
:100310000E94570A9B01AC0160E070E08DEC93E411
:100320000E94AD096B017C01E8A5F9A5BF01FF0F93
:10033000880B990B0E94570A9B01AC0160E070E0AA
:100340008DEC93E40E94AD096E877F87888B998B33
:100350002EA13FA12B3931400CF059C020E030E0F4
:100360004FE753E4C701B6010E94070B362E272E34
:10037000E82EF92E20E030E040E853E40E94A8097E
:10038000882344F102E010E09B868A86BB8EAA8E09
:10039000BE2C9F2CB801012E000C880B990B0E94DB
:1003A000570A9B01AC01632D722D8B2D992D0E9454
:1003B000AD09C62ED72EE82EF92E20E030E040E819
:1003C00053E40E94A8098823ACF48A849B84AA8CF5
:1003D000BB8C04C0C32CD22C01E010E06C2D7D2D11
:1003E0008E2D9F2D0E941F0A3B01D8011197B9AF96
:1003F000A8AF3AC70F5F1F4F083EB3E01B0751F687
:100400008A849B84AA8CBB8C19AE18AE2DC720E0C1
:1004100030E040E853E4C701B6010E94070B0E9498
:100420001F0A3B0119AE18AE1FC7B801012E000C00
:10043000880B990B0E94570A9B01AC01632D722D0A
:100440008B2D992D0E94AD09C62ED72EE82EF92EA0
:1004500020E030E040E853E40E94A8098823BCF47F
:100460008E849F84AA84BB8406C0CF2CDE2CE22C11
:10047000F32C01E010E06C2D7D2D8E2D9F2D0E9420
:100480001F0A2B01F8013197FFABEEAB1CC00F5FC9
:100490001F4F083EF3E01F0741F68E849F84AA8415
:1004A000BB841FAA1EAA0FC020E030E040E853E43E
:1004B0006E857F85888999890E94070B0E941F0A93
:1004C0002B011FAA1EAA2DB73EB739AB28ABC3011B
:1004D000880F991FADB7BEB7A81BB90B0FB6F8941C
:1004E000BEBF0FBEADBFEDB7FEB731961F01FBAB70
:1004F000EAABC201880F991F2DB73EB7281B390BF5
:100500000FB6F8943EBF0FBE2DBF8DB79EB70196B4
:100510009B8F8A8F9DAB8CAB77200CF407C3C301F4
:1005200077200CF401966C01D594C794C301772011
:100530000CF40396DC01B595A795B595A795BD8FED
:10054000AC8FC301880F991F860D971D99230CF45A
:100550000396FC01F595E795F595E795FF8FEE8FEE
:1005600000E010E060E070E0C301072C000CAA0B73
:10057000BB0B8E879F87A88BB98BEEA0FFA0BBA279
:10058000AAA25DA24CA2BEAC5FAC93E08916910416
:1005900009F4ACC054F4B1E08B16910489F0E2E0A8
:1005A0008E16910409F461C0A2C2F4E08F16910482
:1005B00009F4B1C125E08216910409F448C297C23A
:1005C000B801012E000C880B990B0E94570A2BEDE5
:1005D0003FE049EC50E40E94070B6A877B878C87D9
:1005E0009D876E857F85888999890E94570A9B011E
:1005F000AC016A857B858C859D850E94AD090E9432
:10060000980B20E030E040E053E40E94070B6A873B
:100610007B878C879D8720E030E040E450E46B2DA1
:10062000752D8E899F890E94AD099B01AC016A8559
:100630007B858C859D850E94070B20E030E04EEF86
:1006400052E40E943C0920E030E0A9010E943C09EC
:100650000E941F0A072E000C880B990B0E94570A54
:100660000E94740B0E941F0A42C20C151D05F4F46F
:1006700020E030E040E450E46B2D752D8E899F8999
:100680000E94AD0920E030E040E053E40E94070BF7
:1006900020E030E04EEF52E40E943C0920E030E0E0
:1006A000A9010E943C090E941F0A21C220E030E0FB
:1006B00040E450E46B2D752D8E899F890E94AD0911
:1006C00020E030E040E053E40E94070B9B01AC01C6
:1006D00060E070E08EEF92E40E943B0920E030E0A1
:1006E000A9010E943C090E941F0A01C28C8D9D8DA8
:1006F000081719070CF04BC0B801012E000C880B2D
:10070000990B0E94570A6A877B878C879D876E8525
:100710007F85888999890E94570A20E030E040E867
:100720005EE30E94070B9B01AC016A857B858C858B
:100730009D850E94AD0920E030E040E053E40E9436
:10074000070B6A877B878C879D8720E030E040E439
:1007500050E46B2D752D8E899F890E94AD099B01F8
:10076000AC016A857B858C859D850E94070B20E006
:1007700030E04EEF52E40E943C0920E030E0A90155
:100780000E943C090E94740B0E941F0AB0C1AE8DEA
:10079000BF8D0A171B070CF065C06E857F858889A1
:1007A00099890E94570A6A877B878C879D8720E0FA
:1007B00030E040E05FE30E94070B6AA77BA78CA7AD
:1007C0009DA7B801012E000C880B990B0E94570AB7
:1007D0009B01AC016AA57BA58CA59DA50E943B0948
:1007E0006AA77BA78CA79DA720E030E040E85EE3E6
:1007F0006A857B858C859D850E94070B9B01AC01DA
:100800006AA57BA58CA59DA50E94AD0920E030E0DE
:1008100040E053E40E94070B6A877B878C879D87A3
:1008200020E030E040E450E46B2D752D8E899F89E7
:100830000E94AD099B01AC016A857B858C859D85F5
:100840000E94070B20E030E04EEF52E40E943C098A
:1008500020E030E0A9010E943C090E94740B0E9434
:100860001F0A45C16E857F85888999890E94570A2C
:100870006A877B878C879D87B801012E000C880BC7
:10088000990B0E94570A2A853B854C855D850E94FD
:100890003B096AA77BA78CA79DA720E030E040E832
:1008A0005EE36A857B858C859D850E94070B9B0195
:1008B000AC016AA57BA58CA59DA50E94AD0920E091
:1008C00030E040E053E40E94070B6A877B878C8707
:1008D0009D8720E030E040E450E46B2D752D8E893B
:1008E0009F890E94AD099B01AC016A857B858C853F
:1008F0009D850E94070B20E030E04EEF52E40E94FD
:100900003C0920E030E0A9010E943C090E94740BE0
:100910000E941F0AECC00C151D050CF049C0B8015F
:10092000012E000C880B990B0E94570A6A877B875F
:100930008C879D876E857F85888999890E94570A53
:1009400020E030E040E05FE30E94070B9B01AC0138
:100950006A857B858C859D850E94AD0920E030E00D
:1009600040E053E40E94070B6A877B878C879D8752
:1009700020E030E040E450E46B2D752D8E899F8996
:100980000E94AD099B01AC016A857B858C859D85A4
:100990000E94070B20E030E04EEF52E40E943C0939
:1009A00020E030E0A9010E943C090E941F0A9FC07C
:1009B000B801012E000C880B990B0E94570A6A8718
:1009C0007B878C879D876E857F85888999890E9422
:1009D000570A20E030E040E05FE30E94070B9B01F4
:1009E000AC016A857B858C859D850E94AD0920E0E0
:1009F00030E040E050E40E943B0920E030E040E07D
:100A000053E40E94070B6A877B878C879D8720E0D1
:100A100030E040E450E46B2D752D8E899F890E9453
:100A2000AD099B01AC016A857B858C859D850E9403
:100A3000070B20E030E04EEF52E40E943C0920E03A
:100A400030E0A9010E943C090E941F0A50C0B80171
:100A5000012E000C880B990B0E94570A6A877B872E
:100A60008C879D876E857F85888999890E94570A22
:100A700020E030E040E05FE30E94070B9B01AC0107
:100A80006A857B858C859D850E94AD099B01AC01A3
:100A900060E070E080E89FE30E943B0920E030E0E6
:100AA00040E053E40E94070B6A877B878C879D8711
:100AB00020E030E040E450E46B2D752D8E899F8955
:100AC0000E94AD099B01AC016A857B858C859D8563
:100AD0000E94070B20E030E04EEF52E40E943C09F8
:100AE00020E030E0A9010E943C090E941F0AE114A5
:100AF000F10459F0772314F46EA57FA56F3F7105BB
:100B000031F02CF06FEF70E002C06FE770E0F101A0
:100B1000619371931F010F5F1F4F601671060CF0F8
:100B200034CDAAA0BBA04CA05DA002C060E070E0E4
:100B300055200CF413C3C20155200CF401966C012E
:100B4000D594C794C20155200CF403969C013595A9
:100B50002795359527953D8F2C8FC201880F991FBA
:100B6000840D951D99230CF40396DC01B595A7958A
:100B7000B595A795BDA3ACA32A8C3B8C00E010E0F3
:100B8000C201052C000CAA0BBB0B8E879F87A88B7C
:100B9000B98B9B8E8A8EE8A4F9A47BA26AA22196C7
:100BA0009FAC219722967FAC229793E0A916B104BF
:100BB00009F4AFC054F4B1E0AB16B10489F0E2E03F
:100BC000AE16B10409F462C0ABC2F4E0AF16B104D2
:100BD00009F4B7C125E0A216B10409F450C2A0C2BD
:100BE000B801012E000C880B990B0E94570A2BEDBF
:100BF0003FE049EC50E40E94070B6A877B878C87B3
:100C00009D876E857F85888999890E94570A9B01F7
:100C1000AC016A857B858C859D850E94AD090E940B
:100C2000980B20E030E040E053E40E94070B6A8715
:100C30007B878C879D8720E030E040E450E4692D7D
:100C4000772D888D998D0E94AD099B01AC016A8535
:100C50007B858C859D850E94070B2A893B894C8961
:100C60005D890E943C0920E030E04EEF52E40E9492
:100C70003C090E941F0A072E000C880B990B0E944A
:100C8000570A0E94740B0E941F0A4AC20C151D05C8
:100C9000FCF420E030E040E450E4692D772D888DAD
:100CA000998D0E94AD0920E030E040E053E40E94BD
:100CB000070B20E030E04EEF52E40E943C092A8905
:100CC0003B894C895D890E943C090E941F0A28C209
:100CD00020E030E040E450E4692D772D888D998D37
:100CE0000E94AD0920E030E04EEF52E40E94070B75
:100CF0009B01AC0160E070E08EEF92E40E943B0942
:100D00002A893B894C895D890E943C090E941F0AFF
:100D100007C28C8D9D8D081719070CF04CC0B801C7
:100D2000012E000C880B990B0E94570A6A877B875B
:100D30008C879D876E857F85888999890E94570A4F
:100D400020E030E040E85EE30E94070B9B01AC012D
:100D50006A857B858C859D850E94AD0920E030E009
:100D600040E053E40E94070B6A877B878C879D874E
:100D700020E030E040E450E4692D772D888D998D96
:100D80000E94AD099B01AC016A857B858C859D85A0
:100D90000E94070B20E030E04EEF52E40E943C0935
:100DA0002A893B894C895D890E943C090E94740B09
:100DB0000E941F0AB5C1ACA1BDA10A171B070CF008
:100DC00066C06E857F85888999890E94570A6A87DF
:100DD0007B878C879D8720E030E040E05FE30E94C6
:100DE000070B6E8F7F8F88A399A3B801012E000C8B
:100DF000880B990B0E94570A9B01AC016E8D7F8D69
:100E000088A199A10E943B096E8F7F8F88A399A327
:100E100020E030E040E85EE36A857B858C859D8537
:100E20000E94070B9B01AC016E8D7F8D88A199A15B
:100E30000E94AD0920E030E040E053E40E94070B3F
:100E40006A877B878C879D8720E030E040E450E410
:100E5000692D772D888D998D0E94AD099B01AC017C
:100E60006A857B858C859D850E94070B20E030E09C
:100E70004EEF52E40E943C092A893B894C895D89E6
:100E80000E943C090E94740B0E941F0A49C16E8592
:100E90007F85888999890E94570A6A877B878C8712
:100EA0009D87B801012E000C880B990B0E94570AF0
:100EB0002A853B854C855D850E943B096E8F7F8F1F
:100EC00088A399A320E030E040E85EE36A857B8553
:100ED0008C859D850E94070B9B01AC016E8D7F8DDB
:100EE00088A199A10E94AD0920E030E040E053E4E0
:100EF0000E94070B6A877B878C879D8720E030E004
:100F000040E450E4692D772D888D998D0E94AD09BC
:100F10009B01AC016A857B858C859D850E94070BB2
:100F200020E030E04EEF52E40E943C092A893B89E0
:100F30004C895D890E943C090E94740B0E941F0A23
:100F4000EFC00C151D050CF04AC0B801012E000CB5
:100F5000880B990B0E94570A6A877B878C879D872D
:100F60006E857F85888999890E94570A20E030E044
:100F700040E05FE30E94070B9B01AC016A857B8523
:100F80008C859D850E94AD0920E030E040E053E46F
:100F90000E94070B6A877B878C879D8720E030E063
:100FA00040E450E4692D772D888D998D0E94AD091C
:100FB0009B01AC016A857B858C859D850E94070B12
:100FC00020E030E04EEF52E40E943C092A893B8940
:100FD0004C895D890E943C090E941F0AA1C0B8018A
:100FE000012E000C880B990B0E94570A6A877B8799
:100FF0008C879D876E857F85888999890E94570A8D
:1010000020E030E040E05FE30E94070B9B01AC0171
:101010006A857B858C859D850E94AD0920E030E046
:1010200040E050E40E943B0920E030E040E053E41F
:101030000E94070B6A877B878C879D8720E030E0C2
:1010400040E450E4692D772D888D998D0E94AD097B
:101050009B01AC016A857B858C859D850E94070B71
:1010600020E030E04EEF52E40E943C092A893B899F
:101070004C895D890E943C090E941F0A51C0B80139
:10108000012E000C880B990B0E94570A6A877B87F8
:101090008C879D876E857F85888999890E94570AEC
:1010A00020E030E040E05FE30E94070B9B01AC01D1
:1010B0006A857B858C859D850E94AD099B01AC016D
:1010C00060E070E080E89FE30E943B0920E030E0B0
:1010D00040E053E40E94070B6A877B878C879D87DB
:1010E00020E030E040E450E4692D772D888D998D23
:1010F0000E94AD099B01AC016A857B858C859D852D
:101100000E94070B20E030E04EEF52E40E943C09C1
:101110002A893B894C895D890E943C090E941F0AEB
:10112000E114F10459F0772314F46EA57FA56F3F05
:10113000710531F02CF06FEF70E002C06FE770E0E6
:10114000F101619371931F010F5F1F4F401651060C
:101150000CF02BCD8A8C9B8C6AA07BA020E030E029
:1011600060E070E080E090E040E050E0CEA8DFA8D2
:1011700028AC39AC0AA91BA9ECA8FDA8E091000194
:10118000F09101011E161F069CF4A3E0B1E0EC9162
:10119000E43241F0E7E01D92EA95E9F7109201018F
:1011A00010920001E0910001F0910101379789F15F
:1011B0006816790614F4861997094216530614F432
:1011C000241935094115510551F4FC01EE0FFF1F9B
:1011D000E00FF11F408145B90196A10102C04150C5
:1011E00051096115710579F4F901EE0FFF1FEE0D3C
:1011F000FF1D60816F7068B96081607F6BB92F5F80
:101200003F4FB60102C061507109F8E0FA95F1F75D
:10121000B5CF28A939A90FB6F8943EBF0FBE2DBF90
:101220000C94E10020E030E04FE753E46E857F85C9
:10123000888999890E94070BF62EE72E282E392ED1
:1012400020E030E040E853E40E94A80988230CF431
:101250000CC902E010E09F868E86BB86AA86B22C5F
:101260002E2C932C3F2CE1C888A599A58B39914051
:101270000CF01AC9D7CF5058BB27AA270E94530990
:101280000C94CD0A0E94BF0A38F00E94C60A20F0D2
:1012900039F49F3F19F426F40C94BC0A0EF4E0953F
:1012A000E7FB0C94B60AE92F0E94DE0A58F3BA173E
:1012B000620773078407950720F079F4A6F50C946C
:1012C000000B0EF4E0950B2EBA2FA02D0B01B901E7
:1012D00090010C01CA01A0011124FF27591B99F0AC
:1012E000593F50F4503E68F11A16F040A22F232FB8
:1012F000342F4427585FF3CF469537952795A79508
:10130000F0405395C9F77EF41F16BA0B620B730BAE
:10131000840BBAF09150A1F0FF0FBB1F661F771F1F
:10132000881FC2F70EC0BA0F621F731F841F48F4D4
:10133000879577956795B795F7959E3F08F0B0CF5D
:101340009395880F08F09927EE0F97958795089544
:101350000E94920A08F481E008950E94C1090C9449
:10136000CD0A0E94C60A58F00E94BF0A40F029F434
:101370005F3F29F00C94B60A51110C94010B0C94A8
:10138000BC0A0E94DE0A68F39923B1F3552391F356
:10139000951B550BBB27AA2762177307840738F0E4
:1013A0009F5F5F4F220F331F441FAA1FA9F335D041
:1013B0000E2E3AF0E0E832D091505040E695001CF5
:1013C000CAF72BD0FE2F29D0660F771F881FBB1FAF
:1013D000261737074807AB07B0E809F0BB0B802D8D
:1013E000BF01FF2793585F4F3AF09E3F510578F0B9
:1013F0000C94B60A0C94010B5F3FE4F3983ED4F3CF
:10140000869577956795B795F7959F5FC9F7880F8C
:10141000911D9695879597F90895E1E0660F771FDE
:10142000881FBB1F621773078407BA0720F0621B6F
:10143000730B840BBA0BEE1F88F7E09508950E949A
:10144000260A6894B1110C94010B08950E94E60AD3
:1014500088F09F5798F0B92F9927B751B0F0E1F075
:10146000660F771F881F991F1AF0BA95C9F714C025
:10147000B13091F00E94000BB1E008950C94000B84
:10148000672F782F8827B85F39F0B93FCCF386955E
:1014900077956795B395D9F73EF4909580957095BB
:1014A00061957F4F8F4F9F4F0895E89409C097FB38
:1014B0003EF490958095709561957F4F8F4F9F4F2B
:1014C0009923A9F0F92F96E9BB279395F69587956F
:1014D00077956795B795F111F8CFFAF4BB0F11F432
:1014E00060FF1BC06F5F7F4F8F4F9F4F16C08823D9
:1014F00011F096E911C0772321F09EE8872F762F0F
:1015000005C0662371F096E8862F70E060E02AF04F
:101510009A95660F771F881FDAF7880F969587953B
:1015200097F90895990F0008550FAA0BE0E8FEEF10
:1015300016161706E807F907C0F012161306E40797
:10154000F50798F0621B730B840B950B39F40A2690
:1015500061F0232B242B252B21F408950A2609F46E
:10156000A140A6958FEF811D811D089597F99F6772
:1015700080E870E060E008959FEF80EC089500241B
:101580000A941616170618060906089500240A94E8
:1015900012161306140605060895092E0394000C6E
:1015A00011F4882352F0BB0F40F4BF2B11F460FFFD
:1015B00004C06F5F7F4F8F4F9F4F089557FD905826
:1015C000440F551F59F05F3F71F04795880F97FB07
:1015D000991F61F09F3F79F08795089512161306C1
:1015E0001406551FF2CF4695F1DF08C016161706F0
:1015F0001806991FF1CF8695710561050894089525
:10160000E894BB2766277727CB0197F908950E94B6
:101610001A0B0C94CD0A0E94BF0A38F00E94C60A29
:1016200020F0952311F00C94B60A0C94BC0A1124F6
:101630000C94010B0E94DE0A70F3959FC1F3950F85
:1016400050E0551F629FF001729FBB27F00DB11D46
:10165000639FAA27F00DB11DAA1F649F6627B00DD6
:10166000A11D661F829F2227B00DA11D621F739FBF
:10167000B00DA11D621F839FA00D611D221F749FCD
:101680003327A00D611D231F849F600D211D822F14
:10169000762F6A2F11249F5750409AF0F1F088233B
:1016A0004AF0EE0FFF1FBB1F661F771F881F915068
:1016B0005040A9F79E3F510580F00C94B60A0C9457
:1016C000010B5F3FE4F3983ED4F3869577956795D9
:1016D000B795F795E7959F5FC1F7FE2B880F911D92
:1016E0009695879597F908950E94E60AE8F09E3747
:1016F000E8F09639B8F49E3848F4672F782F882799
:10170000985FF9CF86957795679593959539D0F33E
:10171000B62FB1706B0F711D811D20F487957795E1
:10172000679593950C94A00B0C94BB0B0C94010B38
:101730009F930E94CB0B0F9007FCEE5F0C94F40B71
:10174000882371F4772321F09850872B762F07C0D8
:10175000662311F499270DC09051862B70E060E04C
:101760002AF09A95660F771F881FDAF7880F9695EB
:10177000879597F908959F3F31F0915020F4879510
:1017800077956795B795880F911D9695879597F9E9
:1017900008950C94BC0A0E94E60AD8F3E894E0E0AD
:1017A000BB279F57F0F02AED3FE049EC06C0EE0F53
:1017B000BB0F661F771F881F28F0B23A62077307B6
:1017C000840728F0B25A620B730B840BE3959A9549
:1017D00072F7803830F49A95BB0F661F771F881F09
:1017E000D2F790480C94BD0BEF93E0FF07C0A2EA3C
:1017F0002AED3FE049EC5FEB0E9453090E94CD0ABD
:101800000F90039401FC9058E8E6F0E00C94080C6B
:101810009F938F937F936F93FF93EF939B01AC0103
:101820000E94070BEF91FF910E941C0C2F913F919A
:101830004F915F910C94070BDF93CF931F930F93FE
:10184000FF92EF92DF927B018C01689406C0DA2E42
:10185000EF010E941A0BFE01E894A59125913591A4
:1018600045915591A6F3EF010E945309FE0197019E
:10187000A801DA9469F7DF90EF90FF900F911F9124
:0A188000CF91DF910895F894FFCF97
:00000001FF
